:020000040000FA
:1000000083168501851505168601861186178312CC
:100010008501860106168C018D01BC01BD01CD0153
:100020003D2085191B280E218C0A05300C02031D6A
:100030002D2825281B283D20051A10280E218D0A61
:1000400010300D02031D33281028031105300C0257
:10005000031D1B288C0185011B280C08850003113A
:100060000612061710280D08850003110612061740
:100070001C28AC010C089C000D08861B08004028B9
:10008000031100300C02031D46283D2803110130E6
:100090000C02031D4C286328031102300C02031DBF
:1000A00054288C038D0A9F28031103300C02031D72
:1000B0005B288601B028BC03031104300C02031D29
:1000C00040288601D72803110C0885008601861672
:1000D000061712211221861206138D0A85010E21A0
:1000E0000E21AC0A0D082C02031D77287F28061765
:1000F0002C08850002210E210311712808000C082C
:10010000850086010615E5205721E5200611861495
:10011000E5205721E52086100615E5205721E5202A
:10012000861506118614E5205721E5208610061550
:10013000E5205721061157211221E52086018C0A5E
:10014000BC0AAC010C088500861612211221861209
:100150000E21031102303C02031D71288601B028D4
:10016000AC010C0885008616122186010615E520D3
:100170005721E52006118614E5205721E520861039
:100180000615E5205721E520861506118614E52081
:100190005721E52086100615E52057210611572125
:1001A0001221E52086018C0A0C0885000E210C081E
:1001B00085008615061557215721061185018611E0
:1001C0000E21061406160E210828861B08000C08AE
:1001D0008500860106160614022106120610022169
:1001E000861BEA280800861B08000C08850086018B
:1001F000061606140221061206100221861BF82894
:10020000CD0A0800FD309D00FD30AD0064006400A3
:10021000AD0B06299D0B04290D2908000221E520BC
:10022000022108000E210E210E21F32001304D0283
:10023000031908000E21F32001304D0203190800B4
:100240000E21F32001304D02031908000E21F32086
:1002500001304D02031908000E21F32001304D0238
:10026000031908000E21F32001304D020319080084
:100270000E21F32001304D02031908000E21F32056
:1002800001304D02031908000E21F32001304D0208
:10029000031908000E21F32001304D020319080054
:1002A0000E21F32001304D020319080008000E2131
:1002B0000E21E5200E21E5200E21E5200E21E5206E
:1002C0000E21E5200E21E5200E21E5200E21E5205E
:0E02D0000E21E5200E21E5200E210800080079
:02400E00F13F80
:00000001FF
